{
  "contractName": "Beamre",
  "abi": [
    {
      "inputs": [
        {
          "internalType": "address",
          "name": "config_",
          "type": "address"
        },
        {
          "internalType": "address",
          "name": "metreon_",
          "type": "address"
        }
      ],
      "stateMutability": "nonpayable",
      "type": "constructor"
    },
    {
      "inputs": [
        {
          "internalType": "address",
          "name": "router",
          "type": "address"
        }
      ],
      "name": "InvalidRouter",
      "type": "error"
    },
    {
      "anonymous": false,
      "inputs": [
        {
          "indexed": true,
          "internalType": "address",
          "name": "previousOwner",
          "type": "address"
        },
        {
          "indexed": true,
          "internalType": "address",
          "name": "newOwner",
          "type": "address"
        }
      ],
      "name": "OwnershipTransferred",
      "type": "event"
    },
    {
      "inputs": [
        {
          "internalType": "address",
          "name": "",
          "type": "address"
        },
        {
          "internalType": "uint256",
          "name": "",
          "type": "uint256"
        }
      ],
      "name": "_actions",
      "outputs": [
        {
          "internalType": "bytes32",
          "name": "",
          "type": "bytes32"
        }
      ],
      "stateMutability": "view",
      "type": "function",
      "constant": true
    },
    {
      "inputs": [
        {
          "internalType": "uint256",
          "name": "",
          "type": "uint256"
        }
      ],
      "name": "_contracts",
      "outputs": [
        {
          "internalType": "address",
          "name": "",
          "type": "address"
        }
      ],
      "stateMutability": "view",
      "type": "function",
      "constant": true
    },
    {
      "inputs": [],
      "name": "getMetreon",
      "outputs": [
        {
          "internalType": "address",
          "name": "",
          "type": "address"
        }
      ],
      "stateMutability": "view",
      "type": "function",
      "constant": true
    },
    {
      "inputs": [],
      "name": "metreonPayMaster",
      "outputs": [
        {
          "internalType": "address",
          "name": "",
          "type": "address"
        }
      ],
      "stateMutability": "view",
      "type": "function",
      "constant": true
    },
    {
      "inputs": [
        {
          "components": [
            {
              "internalType": "bytes32",
              "name": "messageId",
              "type": "bytes32"
            },
            {
              "internalType": "uint256",
              "name": "fromChainId",
              "type": "uint256"
            },
            {
              "internalType": "address",
              "name": "sender",
              "type": "address"
            },
            {
              "internalType": "bytes",
              "name": "payload",
              "type": "bytes"
            },
            {
              "components": [
                {
                  "internalType": "address",
                  "name": "tokenId",
                  "type": "address"
                },
                {
                  "internalType": "uint256",
                  "name": "amount",
                  "type": "uint256"
                }
              ],
              "internalType": "struct Data.Token[]",
              "name": "tokens",
              "type": "tuple[]"
            },
            {
              "internalType": "enum Data.PayMaster",
              "name": "payMaster",
              "type": "uint8"
            }
          ],
          "internalType": "struct Data.IncomingMessage",
          "name": "message",
          "type": "tuple"
        }
      ],
      "name": "metreonReceive",
      "outputs": [],
      "stateMutability": "nonpayable",
      "type": "function"
    },
    {
      "inputs": [],
      "name": "owner",
      "outputs": [
        {
          "internalType": "address",
          "name": "",
          "type": "address"
        }
      ],
      "stateMutability": "view",
      "type": "function",
      "constant": true
    },
    {
      "inputs": [],
      "name": "renounceOwnership",
      "outputs": [],
      "stateMutability": "nonpayable",
      "type": "function"
    },
    {
      "inputs": [
        {
          "internalType": "address",
          "name": "newOwner",
          "type": "address"
        }
      ],
      "name": "transferOwnership",
      "outputs": [],
      "stateMutability": "nonpayable",
      "type": "function"
    },
    {
      "inputs": [
        {
          "internalType": "uint256",
          "name": "chainId",
          "type": "uint256"
        },
        {
          "internalType": "address",
          "name": "contractId",
          "type": "address"
        }
      ],
      "name": "setContract",
      "outputs": [],
      "stateMutability": "nonpayable",
      "type": "function"
    },
    {
      "inputs": [
        {
          "internalType": "uint256",
          "name": "toChainId",
          "type": "uint256"
        },
        {
          "components": [
            {
              "internalType": "address",
              "name": "tokenId",
              "type": "address"
            },
            {
              "internalType": "uint256",
              "name": "amount",
              "type": "uint256"
            }
          ],
          "internalType": "struct Data.Token[]",
          "name": "tokens",
          "type": "tuple[]"
        },
        {
          "internalType": "address",
          "name": "tokenPool",
          "type": "address"
        }
      ],
      "name": "bridgeToken",
      "outputs": [],
      "stateMutability": "payable",
      "type": "function",
      "payable": true
    }
  ],
  "bytecode": "0x60a03461011157610e9780380390601f19601f83011683019183831067ffffffffffffffff84111761011657808492604094855283398101031261011157610052602061004b83610145565b9201610145565b60008054600160a060020a0319808216339081178455604051959194600160a060020a039492939092908516907f8be0079c531659141344cd1fd0a4f28419497f9722a3daafe3b4186f6b6457e09080a38281169485156100e25750608052168160015416176001556002541617600255604051610d3d908161015a823960805181818161066d015261076a0152f35b807fd7f73334000000000000000000000000000000000000000000000000000000006024925260006004820152fd5b600080fd5b7f4e487b7100000000000000000000000000000000000000000000000000000000600052604160045260246000fd5b5190600160a060020a03821682036101115756fe608080604052600436101561001357600080fd5b7c01000000000000000000000000000000000000000000000000000000006000350490816347647f471461072c575080635c72a569146101fa57806367acd8a0146106f7578063715018a614610691578063737fb66b1461064d5780638599fe891461026b57806389e865a9146102215780638da5cb5b146101fa578063b2bfc835146101a05763f2fde38b146100a957600080fd5b3461019b57602036600319011261019b576100c2610b0e565b6100ca610bfc565b600160a060020a038091169081156101175760005482600160a060020a0319821617600055167f8be0079c531659141344cd1fd0a4f28419497f9722a3daafe3b4186f6b6457e0600080a3005b60846040517f08c379a000000000000000000000000000000000000000000000000000000000815260206004820152602660248201527f4f776e61626c653a206e6577206f776e657220697320746865207a65726f206160448201527f64647265737300000000000000000000000000000000000000000000000000006064820152fd5b600080fd5b3461019b57604036600319011261019b576101b9610b0e565b600160a060020a03602435911660005260036020526040600020805482101561019b576020916101e891610bcb565b90546008604051920260020a90048152f35b3461019b57600036600319011261019b576020600160a060020a0360005416604051908152f35b3461019b57604036600319011261019b57602435600160a060020a03811680910361019b576004356000526004602052604060002090600160a060020a0319825416179055600080f35b606036600319011261019b5767ffffffffffffffff60043560243582811161019b5761029b903690600401610b38565b9060443590600160a060020a038216820361019b57806000526004602052600160a060020a036040600020541660405191336020840152602083526102df83610ad0565b6040519560a08701908111878210176105a7576040528552602085015260408401528160608401526001608084015260005b825181101561045a576103248184610cdc565b5190600160a060020a03825116602083015192604051937f23b872dd00000000000000000000000000000000000000000000000000000000855233600486015230602486015260448501526020846064816000865af1918215610431576103e39460209361043d575b50600254918301516040517f095ea7b3000000000000000000000000000000000000000000000000000000008152600160a060020a03909316600484015260248301529093849190829060009082906044820190565b03925af1918215610431576103fd92610402575b50610c6e565b610311565b6104239060203d60201161042a575b61041b8183610aec565b810190610cef565b50856103f7565b503d610411565b6040513d6000823e3d90fd5b61045390843d861161042a5761041b8183610aec565b508861038d565b5082600160a060020a036002541691604051927f0c8401010000000000000000000000000000000000000000000000000000000084526040600485015282516044850152600160a060020a03602084015116606485015260408301519260a060848601528351938460e487015260005b858110610636575050610104936000858288010152601f80199101168501938401602061012460608401519660c08982030160a48a015287518094520195019060005b81811061060b57505050608001519260028410156105f257600085809492600160a060020a03829460209860c485015216602483015203925af1908115610431576000916105c0575b5033600052600360205260406000208054680100000000000000008110156105a75761058791600182018155610bcb565b600882939254910260020a91826000039283910216911916179055600080f35b60e060020a634e487b7102600052604160045260246000fd5b90506020813d6020116105ea575b816105db60209383610aec565b8101031261019b575181610556565b3d91506105ce565b60e060020a634e487b7102600052602160045260246000fd5b82518051600160a060020a03168852602090810151818901526040909701969092019160010161050d565b806020809284010151610104828a010152016104ca565b3461019b57600036600319011261019b576020604051600160a060020a037f0000000000000000000000000000000000000000000000000000000000000000168152f35b3461019b57600036600319011261019b576106aa610bfc565b6000805473ffffffffffffffffffffffffffffffffffffffff1981168255600160a060020a03167f8be0079c531659141344cd1fd0a4f28419497f9722a3daafe3b4186f6b6457e08280a3005b3461019b57602036600319011261019b5760043560005260046020526020600160a060020a0360406000205416604051908152f35b3461019b5760031960203682011261019b576004359167ffffffffffffffff9182841161019b5760c090843603011261019b5733600160a060020a037f00000000000000000000000000000000000000000000000000000000000000001603610aa257506040519060c08201828110828211176105a75760405282600401358252602483013560208301526107c360448401610b24565b6040830152606483013581811161019b5783013660238201121561019b5760048101358281116105a75760405191610805601f8301601f191660200184610aec565b818352366024838301011161019b578160009260246020930183860137830101526060830152608483013590811161019b576108479060043691850101610b38565b608082015260a4820135600281101561019b5760a0820152600154600160a060020a0316919060005b60808201515181101561099757610897816108916084860186600401610c96565b90610ccc565b35600160a060020a03811680910361019b57604051907ffb0d2b50000000000000000000000000000000000000000000000000000000008252602485013560048301526024820152602081604481885afa90811561043157600091610951575b50906103f78161094c9360206109178361089160848b018b600401610c96565b0135600160a060020a036040519261092e84610ad0565b16825260208201526080860151906109468383610cdc565b52610cdc565b610870565b90506020813d60201161098f575b8161096c60209383610aec565b8101031261019b575190600160a060020a038216820361019b57906103f76108f7565b3d915061095f565b50606081015160208180518101031261019b5760200151600160a060020a03811680910361019b5760005b60808301518051821015610aa057816109da91610cdc565b518051600160a060020a031673eeeeeeeeeeeeeeeeeeeeeeeeeeeeeeeeeeeeeeee8103610a3657506000808060208194015186828215610a2d575bf11561043157610a26608091610c6e565b90506109c2565b506108fc610a15565b6020918201516040517fa9059cbb000000000000000000000000000000000000000000000000000000008152600160a060020a03861660048201526024810191909152929190839060449082906000905af190811561043157608092610a26926104025750610c6e565b005b807fd7f733340000000000000000000000000000000000000000000000000000000060249252336004820152fd5b6040810190811067ffffffffffffffff8211176105a757604052565b90601f8019910116810190811067ffffffffffffffff8211176105a757604052565b60043590600160a060020a038216820361019b57565b3590600160a060020a038216820361019b57565b9080601f8301121561019b5781359167ffffffffffffffff83116105a757604091825193602091610b6d838084020187610aec565b818652828581880193028501019381851161019b578301915b848310610b965750505050505090565b858383031261019b578386918251610bad81610ad0565b610bb686610b24565b81528286013583820152815201920191610b86565b8054821015610be35760005260206000200190600090565b60e060020a634e487b7102600052603260045260246000fd5b600160a060020a03600054163303610c1057565b60646040517f08c379a000000000000000000000000000000000000000000000000000000000815260206004820152602060248201527f4f776e61626c653a2063616c6c6572206973206e6f7420746865206f776e65726044820152fd5b6000198114610c7d5760010190565b60e060020a634e487b7102600052601160045260246000fd5b903590601e198136030182121561019b570180359067ffffffffffffffff821161019b5760200191604082023603831361019b57565b9190811015610be3576040020190565b8051821015610be3576020809202010190565b9081602091031261019b5751801515810361019b579056fea264697066735822122086f4552e8aa1d6030262f9ff54102a2ce05723d36e5bb6f004ef091b5e35cca164736f6c63430008110033",
  "immutableReferences": {
    "1416": [
      {
        "length": 32,
        "start": 1645
      },
      {
        "length": 32,
        "start": 1898
      }
    ]
  },
  "source": "// SPDX-License-Identifier: MIT\r\npragma solidity ^0.8.17;\r\n\r\nimport {Data} from \"../libraries/Data.sol\";\r\nimport {IMetreon} from \"../interfaces/IMetreon.sol\";\r\nimport {MetreonReceiver} from \"../MetreonReceiver.sol\";\r\n\r\nimport {IERC20} from \"@openzeppelin/contracts/token/ERC20/IERC20.sol\";\r\n\r\ncontract Beamre is MetreonReceiver {\r\n    IMetreon private _metreon;\r\n\r\n    mapping(address => bytes32[]) public _actions;\r\n    mapping(uint256 => address) public _contracts;\r\n\r\n    constructor(\r\n        address config_,\r\n        address metreon_\r\n    ) MetreonReceiver(config_, metreon_) {\r\n        _metreon = IMetreon(getMetreon());\r\n    }\r\n\r\n    function setContract(uint256 chainId, address contractId) external {\r\n        _contracts[chainId] = contractId;\r\n    }\r\n\r\n    function bridgeToken(\r\n        uint256 toChainId,\r\n        Data.Token[] memory tokens,\r\n        address tokenPool\r\n    ) external payable {\r\n        Data.OutgoingMessage memory message = Data.OutgoingMessage({\r\n            toChainId: toChainId,\r\n            receiver: _contracts[toChainId],\r\n            payload: abi.encode(_msgSender()),\r\n            tokens: tokens,\r\n            payMaster: Data.PayMaster.METREON_PAY\r\n        });\r\n\r\n        // uint256 fee = _metreon.estimateFee(toChainId);\r\n\r\n        for (uint256 index = 0; index < tokens.length; index++) {\r\n            Data.Token memory token = tokens[index];\r\n\r\n            IERC20 tokenContract = IERC20(token.tokenId);\r\n\r\n            tokenContract.transferFrom(\r\n                _msgSender(),\r\n                address(this),\r\n                token.amount\r\n            );\r\n\r\n            tokenContract.approve(address(_metreon), token.amount);\r\n        }\r\n\r\n        bytes32 messageId = _metreon.sendMessage(message, tokenPool);\r\n\r\n        _actions[_msgSender()].push(messageId);\r\n    }\r\n\r\n    function _metreonReceive(\r\n        Data.IncomingMessage memory message\r\n    ) internal override {\r\n        address receiver = abi.decode(message.payload, (address));\r\n\r\n        for (uint256 index = 0; index < message.tokens.length; index++) {\r\n            Data.Token memory token = message.tokens[index];\r\n\r\n            if (token.tokenId == 0xEeeeeEeeeEeEeeEeEeEeeEEEeeeeEeeeeeeeEEeE) {\r\n                payable(receiver).transfer(token.amount);\r\n            } else {\r\n                IERC20 tokenContract = IERC20(token.tokenId);\r\n                tokenContract.transfer(receiver, token.amount);\r\n            }\r\n        }\r\n    }\r\n}\r\n",
  "sourcePath": "C:\\Users\\DELL\\Documents\\metreon.hack.areon\\smart-contracts\\contracts\\beamre\\Beamre.sol",
  "compiler": {
    "name": "solc",
    "version": "0.8.17+commit.8df45f5f.Emscripten.clang"
  },
  "schemaVersion": "3.4.11",
  "updatedAt": "2024-01-26T02:53:30.245Z",
  "networkType": "ethereum",
  "devdoc": {
    "kind": "dev",
    "methods": {
      "owner()": {
        "details": "Returns the address of the current owner."
      },
      "renounceOwnership()": {
        "details": "Leaves the contract without owner. It will not be possible to call `onlyOwner` functions. Can only be called by the current owner. NOTE: Renouncing ownership will leave the contract without an owner, thereby disabling any functionality that is only available to the owner."
      },
      "transferOwnership(address)": {
        "details": "Transfers ownership of the contract to a new account (`newOwner`). Can only be called by the current owner."
      }
    },
    "version": 1
  },
  "userdoc": {
    "kind": "user",
    "methods": {},
    "version": 1
  }
}